{"abi":[{"type":"constructor","inputs":[{"name":"_greeterAddress","type":"address","internalType":"address"}],"stateMutability":"nonpayable"},{"type":"function","name":"buyMeACoffee","inputs":[{"name":"_message","type":"string","internalType":"string"}],"outputs":[],"stateMutability":"payable"},{"type":"function","name":"getTotalCoffee","inputs":[],"outputs":[{"name":"","type":"string","internalType":"string"}],"stateMutability":"view"},{"type":"event","name":"NewCoffee","inputs":[{"name":"sender","type":"address","indexed":true,"internalType":"address"},{"name":"message","type":"string","indexed":false,"internalType":"string"},{"name":"timestamp","type":"uint256","indexed":false,"internalType":"uint256"}],"anonymous":false}],"bytecode":{"object":"0x6080604052348015600f57600080fd5b506040516105a93803806105a9833981016040819052602c91605e565b60018054336001600160a01b031991821617909155600280549091166001600160a01b0392909216919091179055608c565b600060208284031215606f57600080fd5b81516001600160a01b0381168114608557600080fd5b9392505050565b61050e8061009b6000396000f3fe6080604052600436106100295760003560e01c80634839ee3f1461002e5780638358385414610059575b600080fd5b34801561003a57600080fd5b5061004361006e565b60405161005091906102b9565b60405180910390f35b61006c610067366004610342565b610107565b005b600080546002546040805163cfae321760e01b815290516060946001600160a01b039093169263cfae321792600480820193918290030181865afa1580156100ba573d6000803e3d6000fd5b505050506040513d6000823e601f3d908101601f191682016040526100e291908101906103c2565b6040516020016100f3929190610439565b604051602081830303815290604052905090565b66038d7ea4c6800034116101705760405162461bcd60e51b815260206004820152602660248201527f56616c7565206d7573742062652067726561746572207468616e20302e3030316044820152651032ba3432b960d11b606482015260840160405180910390fd5b6001600080828254610182919061048f565b90915550506001546040516001600160a01b03909116903480156108fc02916000818181858888f193505050501580156101c0573d6000803e3d6000fd5b50600254604051635209b43160e11b81526001600160a01b039091169063a4136862906101f19084906004016102b9565b600060405180830381600087803b15801561020b57600080fd5b505af115801561021f573d6000803e3d6000fd5b50505050336001600160a01b03167f02348a7e29446a4bb4f82dca6bd2fff09a6c53df66b3f9ee873e01359f88b55d824260405161025e9291906104b6565b60405180910390a250565b60005b8381101561028457818101518382015260200161026c565b50506000910152565b600081518084526102a5816020860160208601610269565b601f01601f19169290920160200192915050565b6020815260006102cc602083018461028d565b9392505050565b634e487b7160e01b600052604160045260246000fd5b604051601f8201601f1916810167ffffffffffffffff81118282101715610312576103126102d3565b604052919050565b600067ffffffffffffffff821115610334576103346102d3565b50601f01601f191660200190565b60006020828403121561035457600080fd5b813567ffffffffffffffff81111561036b57600080fd5b8201601f8101841361037c57600080fd5b803561038f61038a8261031a565b6102e9565b8181528560208385010111156103a457600080fd5b81602084016020830137600091810160200191909152949350505050565b6000602082840312156103d457600080fd5b815167ffffffffffffffff8111156103eb57600080fd5b8201601f810184136103fc57600080fd5b805161040a61038a8261031a565b81815285602083850101111561041f57600080fd5b610430826020830160208601610269565b95945050505050565b7402a37ba30b61031b7b33332b2903137bab3b43a1d1605d1b815282601582015268026b2b9b9b0b3b29d160bd1b60358201526000825161048181603e850160208701610269565b91909101603e019392505050565b808201808211156104b057634e487b7160e01b600052601160045260246000fd5b92915050565b6040815260006104c9604083018561028d565b9050826020830152939250505056fea264697066735822122020d6998907b02ecb280e3479c723d2df87191d0b6499b71b08bf2bb2cc51d53064736f6c634300081a0033","linkReferences":{}},"methodIdentifiers":{"buyMeACoffee(string)":"83583854","getTotalCoffee()":"4839ee3f"},"id":0}